:020000040001F9
:10B00000E8330020D5B00100EFB00100F1B001003D
:10B010000000000000000000000000000000000030
:10B02000000000000000000000000000F3B001007C
:10B030000000000000000000F5B00100F7B00100C2
:10B0400099B40100F9B00100F9B00100F9B00100B4
:10B05000F9B00100000000006DB20100F9B001007C
:10B06000F9B00100F9B00100F9B00100F9B0010038
:10B07000F9B00100F9B00100F9B00100F9B0010028
:10B08000F9B00100EDB40100F9B00100F9B0010020
:10B090001DB8010025B8010051B80100F9B0010048
:10B0A000F9B00100F9B0010000000000000000004C
:10B0B0000000000000000000000000000000000090
:10B0C0000348854600F094F80048004779D5010010
:10B0D000E83300200321094802680A430260084857
:10B0E00002680A4302600748804707480047FEE7B6
:10B0F000FEE7FEE7FEE7FEE7FEE70000240500406E
:10B10000540500408DB80100C1B0010030B50B46B8
:10B11000014600202022012409E00D46D5409D4231
:10B1200005D31D469540491B2546954040191546B7
:10B13000521E002DF1DC30BD70B5002425460028DC
:10B1400001DA01244042002901DA01254942FFF7D2
:10B15000DDFFAC4200D04042002C00D0494270BD1F
:10B1600003460B439B0703D009E008C9121F08C020
:10B17000042AFAD203E00B780370401C491C521ECB
:10B18000F9D27047D2B201E00270401C491EFBD2D6
:10B1900070470022F6E710B513460A4604461946E2
:10B1A000FFF7F0FF204610BD421C0178401C00292B
:10B1B000FBD1801A704703460A780270401C491C74
:10B1C000002AF9D1184670470321001D401E03785C
:10B1D00012021A43491EF9D510467047034603224E
:10B1E0000870000A491C521EFAD518467047000024
:10B1F000064C0125064E05E0E36807CC2B430C3CCA
:10B2000098471034B442F7D3FFF75EFFF02E0200E8
:10B21000102F020070B58C180578401C6B075B0F6F
:10B2200001D10378401C2A1106D10278401C03E0AA
:10B2300006780E70401C491C5B1EF9D12B0705D403
:10B240000023521E0DD40B70491CFAE70378401CF2
:10B25000CB1A921C03E01D780D70491C5B1C521E1A
:10B26000F9D5A142D8D3002070BD000010B5064822
:10B27000C06B002806D000200349C86300F01CF80A
:10B2800000F004F810BD00004061004070B51020CF
:10B2900005F0CCFE0446112005F0C8FE0546002C42
:10B2A00003D00021122005F0DAFE002D03D0012189
:10B2B000122005F0D4FE70BD10B5034800780028B8
:10B2C00001D002F031FE10BD54210020C206D20E82
:10B2D00001219140014A11607047000080E200E0C6
:10B2E000C206D20E01219140014A11607047000050
:10B2F00080E100E0C206D20E01219140014A1160B6
:10B300007047000000E100E0C206D20E012191402A
:10B31000014A11607047000000E100E0C206D20E51
:10B3200001219140014A11607047000000E200E0F5
:10B3300010B5002819DA1A4A03071B0F083B9B08AF
:10B340009B00D2588307DC0EFF23A3409A438B0750
:10B350001B0E8407E40EA3401A43114B0407240F6D
:10B36000083CA408A4001A5118E00E4A03231B024B
:10B37000D21883089B00D2588307DC0EFF23A3401A
:10B380009A438B071B0E8407E40EA3401A43054B18
:10B39000032424021B198408A4001A5110BD0000C4
:10B3A0001CED00E000E100E010B5002819DA1A4AAF
:10B3B00003071B0F083B9B089B00D2588307DC0E3A
:10B3C000FF23A3409A438B071B0E8407E40EA34080
:10B3D0001A43114B0407240F083CA408A4001A5177
:10B3E00018E00E4A03231B02D21883089B00D25890
:10B3F0008307DC0EFF23A3409A438B071B0E8407B1
:10B40000E40EA3401A43054B032424021B198408AD
:10B41000A4001A5110BD00001CED00E000E100E0A6
:10B4200010B5002819DA1A4A03071B0F083B9B08BE
:10B430009B00D2588307DC0EFF23A3409A438B075F
:10B440001B0E8407E40EA3401A43114B0407240F7C
:10B45000083CA408A4001A5118E00E4A03231B025A
:10B46000D21883089B00D2588307DC0EFF23A34029
:10B470009A438B071B0E8407E40EA3401A43054B27
:10B48000032424021B198408A4001A5110BD0000D3
:10B490001CED00E000E100E010B5FF20013005F0F8
:10B4A000B7FC00280CD0FF20013005F0BCFC0120C7
:10B4B00005F0C0FC01200C494870002001F026FC7A
:10B4C000FF20053005F0A4FC00280BD0FF2005303C
:10B4D00005F0A9FC022005F0ADFC012002498870AE
:10B4E00001F014FC10BD00000825002010B500205C
:10B4F000074908600021064841608160C160002062
:10B50000034940390860486006F0EEFA10BD0000BB
:10B5100040110140F8B504460D46164600BF0E48DE
:10B520000078002801D100F0E3F900BFEFF31080AC
:10B530000746012080F3108800BF00BF324629462D
:10B54000204600F00BF80090F8B280F3108800BF9E
:10B5500000BF0098F8BD000030270020F7B582B08A
:10B560000746164603980190182078431B49401857
:10B57000009000984069002804D0012811D00228CA
:10B5800026D11EE0009800F0EBF90546B54201D245
:10B59000002405E0344632460199009800F063FB30
:10B5A00018E0009800F0DCF90546B54201D22846C3
:10B5B00000E03046044622460199009800F053FB13
:10B5C00008E032460199009800F010FB044601E0C3
:10B5D000002400BF00BF204605B0F0BD4827002072
:10B5E0000FB438B5044606A800906A46204605996F
:10B5F00000F008F8054600200090284638BC08BC3A
:10B6000004B01847F7B59AB00D46144602A8159035
:10B6100040201690002017901A981990002018903A
:10B6200000BF2E786D1C002E00D1E4E0252E79D1CC
:10B6300000270120149000BF2E78232E12D02B2E2D
:10B640000CD02D2E02D0302E10D103E00120074364
:10B650006D1C0EE0022007436D1C0AE00420074326
:10B660006D1C06E0082007436D1C02E000201490CA
:10B6700000BF00BF14980028DED1129000BF2E78C2
:10B68000302E01DB392E00DD08E06D1C0A211298F6
:10B6900048433146303940181290F0E700BF00208F
:10B6A00013902E782E2E11D16D1C00BF2E78302EC7
:10B6B00001DB392E00DD08E06D1C0A211398484398
:10B6C0003146303940181390F0E700BF2E7800BFA4
:10B6D0006C2E01D0682E02D16D1C2E7800E000E0A7
:10B6E000F6E700BF702E63D008DC252E72D0582EEE
:10B6F00038D0632E09D0642E71D114E0732E40D05F
:10B70000752E1FD0782E6AD12BE02168081D20608D
:10B71000086814901498C0B2019015A8019900F01F
:10B7200043FA5DE05FE02168081D2060086814901E
:10B730001298019700900A2215A8139B149900F003
:10B740001DF94DE02168081D2060086814901298CA
:10B75000019700900A2215A8139B149900F096F9FE
:10B760003EE000BF2168081D206008681490129810
:10B7700001970090102215A8139B149900F086F9E8
:10B780002EE02168081D20600868019000BF019824
:10B7900006780198401C0190002E00D106E0314649
:10B7A00015A800F001FA18980028F0DA00BF17E099
:10B7B0002168081D206008681490002008210B46AD
:10B7C00010220091019015A8149900F05FF907E08C
:10B7D00000E004E0252115A800F0E6F900E000BF34
:10B7E00000BF6D1C03E0314615A800F0DDF9189884
:10B7F000002800DB15E700BF189800280BDD17981C
:10B80000002804D002A9179A1A98FFF783FE179907
:10B8100018984018189018981DB0F0BD10B506F093
:10B8200093F810BD10B5084800780121484006493A
:10B83000087006480068002804D0084600780349CC
:10B840000968884710BD00003421002038210020FD
:10B8500070B50C480068002811D00A48006880477D
:10B86000044600BF2546002D07D000BF064AFF2131
:10B870009031284600F03EFD00BF00BF01E001F01E
:10B880003DFC70BD3C2100209C2E020010B501F053
:10B89000BDFC002805D0104810494860C813104965
:10B8A000886101F097FC002802D001200D498860D2
:10B8B00001F0E2FC00280ED00B480068012807D0F8
:10B8C0000A480949086000BF074800680128FBD101
:10B8D000C0200549486110BDDFFF07C000050040DA
:10B8E000006C00400006004000EC0640759300002C
:10B8F00010B5124C03202061606111A0A0611349B2
:10B90000E1610121890221620021A1626162E1629B
:10B910000BA020660E4961661021A16600212167F7
:10B92000E16661670BA1E01DFFF745FC0AA1204617
:10B93000FFF741FC2020A07110BD0000302700203F
:10B940005465726D696E616C00000000D82700209C
:10B95000D82B00205254540053454747455200000D
:10B9600010B501460A69CB689A4204D88C68641EF7
:10B97000E41AA01801E0D41A601E10BDFFB585B00E
:10B9800006460F460F9D0E9C002F01DA784200E01C
:10B99000384603900120049007E007990398FFF7C9
:10B9A000CBFB03900498401C0490079903988842AD
:10B9B000F3DA04990898884201D908980490002C79
:10B9C00006D0002F03DB04202840042800D1641E89
:10B9D00002202840002802D00898002815D0E80747
:10B9E000C00F002811D1002C0FD008E0641E2021C8
:10B9F000304600F0D9F8F068002800DA04E0002CA6
:10BA000002D00498A042F1D300BFF06800283ADBCE
:10BA1000002F05DA7F422D21304600F0C5F807E0FF
:10BA200004202840042803D12B21304600F0BCF824
:10BA3000F068002827DB02202840022818D1E807F8
:10BA4000C00F002814D10898002811D1002C0FD065
:10BA500008E0641E3021304600F0A6F8F0680028A7
:10BA600000DA04E0002C02D00498A042F1D300BF19
:10BA7000F068002807DB0195009439463046089BA2
:10BA8000079A00F003F809B0F0BD0000FFB585B0DB
:10BA9000064617461D460E9C06980290012003900C
:10BAA000019007E039460298FFF730FB02900198B9
:10BAB000401C01900298B842F4D20198854200D906
:10BAC00001950F98C007C00F00281DD1002C1BD076
:10BAD00002210F980840022804D1002D02D1302005
:10BAE000009001E02020009008E0641E304600999C
:10BAF00000F05AF8F068002800DA04E0002C02D0C8
:10BB00000198A042F1D300BFF068002848DB0FE0A5
:10BB1000012D01D96D1E08E003990698FFF7F6FA8A
:10BB200004900498B84200D203E00398784303904D
:10BB3000EEE700BF00BF03990698FFF7E7FA04900D
:10BB40000399049848430699081A0690154A0498E0
:10BB5000115C304600F028F8F068002800DA07E0B1
:10BB600039460398FFF7D2FA039003980028E2D1F0
:10BB700000BF0F98C007C00F002811D0002C0FD0B5
:10BB800008E0641E2021304600F00EF8F06800281E
:10BB900000DA04E0002C02D00198A042F1D300BFEB
:10BBA00009B0F0BD6828020070B504460E46A568CD
:10BBB000681C6168814206D320684655681CA060F5
:10BBC000E068401CE0606168A06888420DD1A2680E
:10BBD00021682069FFF79EFCA168884203D00020FD
:10BBE000C043E06001E00020A06070BDF7B582B006
:10BBF0000446174600200190E56800BF20690090C8
:10BC00000098A84203D90098401B461E04E0A16892
:10BC10000098281A401C0E1AA068401BB04201D997
:10BC2000304601E0A068401B0646BE4201D23046C5
:10BC300000E0384606466168481932460399FFF726
:10BC40008FFA019880190190039880190390BF1B07
:10BC5000AD19A068A84200D10025E560002FCDD124
:10BC6000019805B0F0BDF7B582B004461546E66808
:10BC7000A068871BAF4208D9616888192A460399D2
:10BC8000FFF76EFA7019E06010E00197616888199B
:10BC9000019A0399FFF764FAE81B0190039AD119FE
:10BCA0006068019AFFF75CFA0198E06005B0F0BDAA
:10BCB0000FB41CB50246002007AC00290BD0491E6A
:10BCC00001910092064B6A462146069800F040F822
:10BCD000009A002111701CBC08BC04B01847000079
:10BCE000A1C0010030B47446641E2578641CAB42C8
:10BCF00004D3635D5B00E31830BC18471D46F8E7CA
:10BD000002E008C8121F08C1002AFAD17047704724
:10BD1000002001E001C1121F002AFBD17047000082
:10BD20000146202909DA01208840054A10400028F0
:10BD300001D0012070470020FCE70120FAE7000055
:10BD4000FC06FFBC00BFEFF31081084672B67047D7
:10BD5000FFB58FB00546002606E025280AD0129AC6
:10BD6000119990476D1C761C28780028F5D1304633
:10BD700013B0F0BD002402940121B54A009400E004
:10BD800004436D1C2B780846203B98401042F7D1A5
:10BD900028782A280ED0022228780146303909292D
:10BDA00016D802990A2359433039401814436D1CA0
:10BDB0000290F1E7109802C802911090002904DA6D
:10BDC00001204003044348420290022004436D1CBA
:10BDD00028782E2817D10420044368786D1C2A285F
:10BDE0000CD110986D1C02C8009110900BE00099C6
:10BDF0000A225143303940186D1C009028780146C2
:10BE000030390929F3D928786C2810D006DC4C2861
:10BE10001AD068280ED06A2817D104E0742813D0ED
:10BE20007A2812D110E00120400504430CE00121E2
:10BE3000090501E0032109050C436978814203D11A
:10BE40000120000524186D1C6D1C2878692874D009
:10BE500006DC00288BD0632827D0642806D16CE04C
:10BE60006E2808D073282CD0752878D0129A119992
:10BE70009047761C5FE06002400F022809D003283B
:10BE80000DD00428109801680DD00E60001D109090
:10BE900051E01098F21701680E604A60F6E71098BA
:10BEA00001680E80F2E70E70F0E710986A4601789C
:10BEB0001173001D10900020507303A80190012001
:10BEC00005E0109802C8019110900020C04361075E
:10BED0000CD5002700E07F1C00998F420FDA8742C3
:10BEE000F9DB0199C95D0029F5D108E0002700E0E0
:10BEF0007F1C8742FCDB0199C95D0029F8D10298BB
:10BF00002146C01B0290129B119A00F0B3F88019D1
:10BF1000C61907E0019801990078491C0191129A0D
:10BF2000119990477F1EF5D22146129B119A0298D3
:10BF300000F090F886196D1C16E70A200190109900
:10BF400001C910916102490F032900D100B20429EF
:10BF500000D140B2002803DA40422D2103E00DE079
:10BF6000210504D52B216A461173012103E0E10765
:10BF700011D02021F7E70CAF0C9114E00A200190BA
:10BF8000109901C910916102490F032900D180B2B3
:10BF9000042900D1C0B20021EDE70199FFF7B6F8FE
:10BFA00030317F1E39700028F7D104A8C01B203023
:10BFB0000190600704D5012000048443009801E04B
:10BFC000012000900199884201DD401A00E0002024
:10BFD000411800900C9809180298401A0290E0034A
:10BFE00006D42146129B119A029800F043F8861954
:10BFF00000200D9008E003A9085C129A119990475F
:10C000000D98401C761C0D900C998842F3DBE003E0
:10C010000CD52146129B119A029800F02BF8861934
:10C0200004E0129A302011999047761C0099481E1E
:10C0300000900029F5DC05E03878129A7F1C1199F0
:10C040009047761C0199481E01900029F4DC6BE7AB
:10C0500009280100F8B5044600251E461746880445
:10C0600004D405E039462020B0476D1C641EF9D584
:10C070002846F8BDFFB50446002581B01E46C8031A
:10C0800001D5302700E02027880404D505E0384694
:10C090000399B0476D1C641EF9D5284605B0F0BD64
:10C0A0004A68002A06D00A68531C0B601070486862
:10C0B000401E486070470246002105E0505C0028A1
:10C0C00001D001207047491C0629F7D30020F9E769
:10C0D000F7B582B004461646002537880020308028
:10C0E0002D20005D00280CD03A463146039800F020
:10C0F00057FC054600BF002D02D0284605B0F0BD14
:10C1000000BFA07800280BD03A463146039800F0D3
:10C11000DDF9054600BF002D01D02846EEE700BF3F
:10C12000E07800280DD0E17848B23B4632460399CA
:10C1300000F038FF054600BF002D01D02846DDE79E
:10C1400000BF606800280ED00020616808563B469A
:10C150003246039905F017FD054600BF002D01D0BA
:10C160002846CBE700BF208900280FDD0197009605
:10C170000622022120460830039B05F05DFD05469E
:10C1800000BF002D01D02846B8E700BF208A002854
:10C190000FDD019700960722032120461030039BF4
:10C1A00005F04AFD054600BF002D01D02846A5E751
:10C1B00000BF208B00280FDD019700961522142167
:10C1C00020461830039B05F037FD054600BF002DC3
:10C1D00001D0284692E700BF206A00280CD03B46D9
:10C1E0003246206A039900F01FFE054600BF002D6D
:10C1F00001D0284682E700BF606A00280CD03B4689
:10C200003246606A039901F069FA054600BF002DC5
:10C2100001D0284672E700BF2C20005D00280CDD0D
:10C220003B4632462046039905F098F8054600BF84
:10C23000002D01D0284661E700BF207800280CD0EF
:10C240003B4632462046039901F098FA054600BF66
:10C25000002D01D0284651E700BF28464EE70000D8
:10C2600070B504461748FFF726FF0546012C06D097
:10C27000022C0DD0032C14D0042C20D118E012482D
:10C280004078002803D0002D01D0012070BD00BFF0
:10C290000D488078002803D0002D01D00220F5E75A
:10C2A00000BF0948C078002801D00320EEE700BF96
:10C2B00005480079002801D00420E7E700BF0020EE
:10C2C000E4E7000009210020842500200146C87809
:10C2D00004221040002801D1072070470020FCE70D
:10C2E00070B504460D46164632462946204601F0F2
:10C2F00023FB70BDFEB504460E46154669460E800A
:10C30000019502946A4600210148FFF7E9FFFEBD4E
:10C310000140000010B503460C4600BF0D484068C0
:10C32000002801D1082010BD00BF002A01D107203C
:10C33000F9E7002B01D10720F5E71868007C0028F9
:10C3400001D00820EFE71968002008744C744A6196
:10C3500000BFE8E798200020F8B507460D461446D0
:10C360001E4620468107890F002901D1012100E0E6
:10C370000021002901D10720F8BD002C01D10720A0
:10C38000FAE704F069FF11480660002010490870C0
:10C39000487008468570446000200E4908600E49C8
:10C3A00008700E4908701420FEF790FF0321142036
:10C3B000FEF7FAFF1420FEF79DFF384604F022FF37
:10C3C00004F01AFF064908600020D5E7B4200020D9
:10C3D00098200020A0200020B0200020B1200020C4
:10C3E000A4200020F8B504460E461746254600BF97
:10C3F00010484068002801D10820F8BD00BF002C7B
:10C4000001D10820F9E7052E01D20720F5E7686978
:10C41000002801D10820F0E7687C012801D13046CE
:10C4200000E0002000903B4631462846009A05F087
:10C430002BFBE2E79820002070B5044600BFFFF711
:10C4400081FC05460E48406800280ED101200C49A9
:10C4500048600C4800680C490840094908600A48CF
:10C46000084908600020207001E001202070002DA4
:10C4700003D100BF62B600BF00BF00BF70BD0000A7
:10C480008C20002080E100E0FC06FFBC70B5044673
:10C4900025460C484068002812D0002D10D1FFF727
:10C4A00051FC064607480068074908600020054916
:10C4B0004860002E03D100BF62B600BF00BF00BFBE
:10C4C00000BF70BD8C20002000E100E0F8B50546FB
:10C4D0000C4617462088001DB84201D90C20F8BD33
:10C4E000684679DF064600BF002E01D03046F6E7E9
:10C4F00000BF0320218868542088401C2080192018
:10C50000218868542088401C208020884119684672
:10C51000008805F065FB2188401820800020DEE7B8
:10C52000F8B504460D4616460027002C0DD02146CE
:10C530000020FFF755F8324613A10020FFF750F80E
:10C5400015A10020FFF74CF803E016A10020FFF72B
:10C5500047F800270FE028786D1C009015A10020F7
:10C56000009AFFF73DF8701EB84203D913A10020CE
:10C57000FFF736F87F1CB742EDD311480168002061
:10C58000FFF72EF8F8BD00002C206C656E6774680C
:10C590003A202564000000002C20616464723A2077
:10C5A000307800002D2D3E20616464723A2030788E
:10C5B0000000000025303278000000003A00000042
:10C5C000881E020010B503221146102004F020FD41
:10C5D00003221146112004F01BFD10BDF3B593B0EA
:10C5E0000D461F21129111911398002818D013980D
:10C5F000FFF76CFE044600BF002C02D0204615B0A9
:10C60000F0BD00BF12AA09A91398FFF761FD044607
:10C6100000BF002C01D02046F1E700BF09AE02E0C8
:10C62000002600201290002D17D0284605F0CEF8E5
:10C63000044600BF002C01D02046E0E700BF11AA4D
:10C6400001A92846FFF744FD044600BF002C01D095
:10C650002046D4E700BF01AF02E000270020119080
:10C6600010A88088C3B210A80089C1B23A463046EB
:10C6700072DFC4E7F8B504460F4615461E46002C87
:10C6800001D0002D01D10E20F8BD012057490870BE
:10C69000002057490870202229465648FEF760FDC1
:10C6A000554806605549069808600020C043544923
:10C6B000088007215348FEF76CFD3C215248FEF7E5
:10C6C00068FD207850490870A0788870E078C870BC
:10C6D00060784870084662692169426101610146DB
:10C6E000E268A068CA6088600846E269A169C26120
:10C6F0008161606A00281BD044484349486244492C
:10C700008160606A00884049496A0880606A808860
:10C710003D49496A8880002005E0616A8968095CB2
:10C720003B4A1154401C3849496A89888142F4D8EF
:10C73000A06A002824D0374937488160324988628E
:10C7400034493148806A8160A06A80882E49896AAC
:10C750008880A06A00882C49896A0880002005E04A
:10C76000A16A8968095C2B4A1154401C2649896AD0
:10C7700089888142F4D82C20015D23482030017340
:10C78000206A00280BD025481F490862206A40888B
:10C79000096A4880206A00881B49096A0880606825
:10C7A000002802D0184960684860002008E0C100F5
:10C7B000091A1B4A89181B4A12688300D150401C71
:10C7C0000828F4DB002007E00101174A8A18154900
:10C7D00089688300CA50401C0828F5DB39460A489E
:10C7E000FFF7FCFE009000984EE7000004210020B7
:10C7F0000721002084250020182100201C21002072
:10C800001421002008210020A4250020E02500207C
:10C81000EC250020182600200C26002010210020E6
:10C820007826002024210020B026002030B587B0D3
:10C83000054651480078002802D1082007B030BDD5
:10C840004E48057000F0C9FB002804D001204C4977
:10C8500008700020F2E707214A48FEF79AFC4A4890
:10C860004078002803D04548007801280FD046487A
:10C870008078002803D041480078012807D042483A
:10C880008078002812D03D48007802280ED13F4819
:10C890000068002807D001203D49087008203B4966
:10C8A0000968884702E00020394908702846FFF7E8
:10C8B000D7FC3249087035480068002817D0084670
:10C8C0000078032803D00846007804280FD12E48AA
:10C8D000007800280BD02F480078002807D10120CD
:10C8E0002D490870072029490968884702E000207F
:10C8F00029490870182101A8FEF74BFC0021684661
:10C90000017101731D4800780300FFF7EBF905186A
:10C9100004090E131C0001A804F06CFD044613E08A
:10C9200001A804F077FD04460EE001A804F088FD9C
:10C93000044609E001A804F0BBFD044604E0002021
:10C940001649087000E000BF00BF0C4800780028BE
:10C9500006D001A873DF0446002C01D020466DE705
:10C960000A480068002804D00C4800780749096884
:10C970008847002062E700000421002007210020F2
:10C9800005210020082100208425002018210020F6
:10C990000F2100202021002021210020062100203D
:10C9A000FEB505460C46174620880930B84201D925
:10C9B0000C20FEBD684671DF064600BF002E01D088
:10C9C0003046F6E700BF0820218868542088401CC4
:10C9D00020801B20218868542088401C20802188CA
:10C9E0004819062200A90131FEF7BAFB2088801DF4
:10C9F000208068460078002802D12188685402E02F
:10CA00000120218868542088401C20800020D0E725
:10CA10007FB5044600BF0121684681735D4981816D
:10CA200000BF5D4A03A90120A0DF0546002D02D00A
:10CA3000284604B070BD208800280DDD57480090BE
:10CA4000228823463C335648616800F0CBF80546FF
:10CA5000002D01D02846ECE7208900280EDD514842
:10CA60000090228923463C334D48401FE16800F086
:10CA7000B9F80546002D01D02846DAE7208A0028BB
:10CA80000EDD49480090228A23463C334448001F6B
:10CA9000616900F0A7F80546002D01D02846C8E7D7
:10CAA000208B00280EDD41480090228B23463C332A
:10CAB0003B48801EE16900F095F80546002D01D045
:10CAC0002846B6E7208C00280EDD39480090228CDD
:10CAD00023463C333248C01E616A00F083F80546A5
:10CAE000002D01D02846A4E7208D00280EDD314816
:10CAF0000090228D23463C332948401EE16A00F015
:10CB000071F80546002D01D0284692E7206B0028D9
:10CB100013D001A8216B04F067FE274823463C335D
:10CB2000082201A900901E48801F00F05BF805460E
:10CB3000002D01D028467CE700BF606B00280FD095
:10CB40001E480090606B027923463C33016814480C
:10CB5000401C00F047F80546002D01D0284668E744
:10CB6000A06B002813D001A8A16B04F0B7FA1448F9
:10CB700023463C33072201A900900948273000F0E2
:10CB800031F80546002D01D0284652E700BF0020AD
:10CB90004FE700000A180000BA200020BC20002047
:10CBA000292A0000C4200020CC200020D42000200E
:10CBB000DC200020E4200020EC200020F4200020D5
:10CBC000FC20002010B50446204604F05AFD10BD9C
:10CBD00070B504460D462846FEF7E6FA20806560EB
:10CBE00070BD0000F0B58FB007460D4614461E46D6
:10CBF00000BF002D01D0012000E00020009000982F
:10CC0000002805D100BF31A26C21FFF773FB00BFE4
:10CC100000BF00BF002C01DD012000E000200090DB
:10CC20000098002805D100BF28A26D21FFF762FB04
:10CC300000BF00BF1C2107A8FEF7ABFA6946087FBA
:10CC400002218843801C69460877002008900A90DA
:10CC50000B900C900D9000BF012108A881766846CA
:10CC6000078700BF00200190317868460171717814
:10CC70004171807906218843811C684681718079E1
:10CC800008218843014668468171807910218843D4
:10CC90000146684681718079410849006846817182
:10CCA000142102A8FEF775FA0EA8029001A80390BD
:10CCB00068460482002141828482069502AA07A95F
:10CCC00011480088149BA2DF0FB0F0BD2E2E5C2E01
:10CCD0002E5C53444B31322E325C636F6D706F6E3D
:10CCE000656E74735C626C655C626C655F736572C3
:10CCF00076696365735C626C655F6469735C626CC2
:10CD0000655F6469732E6300BA20002070B5054624
:10CD1000002D01D1094C01E0084C08340AE02046FE
:10CD200000F0D4FA0646002E00D104E028467168CF
:10CD3000884700BFF3E700BF70BD0000102500204A
:10CD4000FEB51F480068002836D01D4800680568F9
:10CD500004F052FA01901B4804682146019804F03F
:10CD6000B1FDC61C18480078002801D104F056FA1D
:10CD7000AE4201D2284600E0304604192402240ABB
:10CD8000204604F033FA04F037FA00900199009835
:10CD900004F098FDC71C2046019904F093FD8742DA
:10CDA00009D904F029FA074604F020FA2F2004F0EC
:10CDB00047F804F0E3FE01E004F04EFAFEBD000087
:10CDC000A0200020A4200020B820002001460888D0
:10CDD000062808DB08881922D201904205DD088860
:10CDE000104A904201D0072070474888062808DB87
:10CDF00048881922D201904205DD4888094A9042AC
:10CE000001D00720F0E70888064A904208D04888F9
:10CE1000904205D008884A88904201DD0720E3E768
:10CE20000020E1E7FFFF0000FFB581B006460D4698
:10CE300014462088801D0499884202D90C2005B030
:10CE4000F0BD3046FFF7C2FF074600BF002F01D0FC
:10CE50003846F4E700BF0520218868542088401C2C
:10CE600020801220218868542088401C208022883D
:10CE70005119308804F0B4FE21884018208022889F
:10CE80005119708804F0ACFE2188401820800020E1
:10CE9000D5E70000014614480078144A1278904201
:10CEA0001DD011480078401C0F4A107010460078C1
:10CEB000022801D1002010700B48007880000C4A35
:10CEC000105808600B4A086812688018094A1060F8
:10CED000104600680002000A106001207047002020
:10CEE000086000BFFAE70000B0200020B120002059
:10CEF000A8200020A420002070B5002404F0B4FB7A
:10CF000000280DD048DF044600BF2546002D06D07E
:10CF100000BF05A2AA212846FFF7ECF900BF02E0F6
:10CF200040BF20BF20BF70BD536F757263655C6EDC
:10CF3000726635315F7461675F706F7765725F6DC0
:10CF4000616E6167652E6300F0B50346002420E042
:10CF5000134E306806689E4203D90668F61A0660CA
:10CF60001BE006689B1B06683419002606600C4E01
:10CF700035680B4FC6693E60C668002E08D00E1992
:10CF80003602360A4660C66886601668C661156055
:10CF900000BF034800680028DAD100BFF0BD0000E0
:10CFA000A020002030B504461088C01C984201D94A
:10CFB0000C2030BD0220158848551088401C108078
:10CFC0000120158848551088401C108015884C5544
:10CFD0001088401C10800020EBE708B5684600F080
:10CFE00007F80098002801D0012008BD0020FCE7C8
:10CFF0000146002901D1032070470248406E0860B5
:10D000000020F9E71C2500200148007B7047000044
:10D01000792000200148807B7047000079200020A3
:10D0200002494878097800020843704779200020B7
:10D0300010B50248FEF7C8F810BD0000812000209E
:10D040000249C87889780002084370477920002097
:10D050000148407B7047000079200020014840686B
:10D060007047000000B5004010B50248FEF7ACF86C
:10D0700010BD00007D20002070B500242DE001F0DF
:10D0800085FE05460A206043154A81182846FEF7AA
:10D09000A5F8144860431349401801B20A206043C0
:10D0A0000F4A80180171090A41710E4860430D4909
:10D0B000401801B20A20604380188171090AC171C9
:10D0C000084860430749401801B20A2060438018AD
:10D0D0000172090A4172601C84B2042CCFDB70BD5E
:10D0E000AC2400201111000010B501F0E7FF002072
:10D0F0000149087010BD000005200020F8B52E4839
:10D100000078002800D1F8BD00252C4800680028D0
:10D1100001D1012000E00020064600BF002D20D1F3
:10D1200027480078002800D0EDE7684652DF044623
:10D13000052C01D1012513E0002C06D000BF214AA7
:10D1400089212046FFF7D6F80AE0009803F006FF91
:10D150001D480068002803D01B49009809688847CB
:10D1600000BF002E1FD116480078002800D0CAE763
:10D1700016480088009069461548006861DF04463B
:10D18000052C01D101260DE0002C06D000BF0D4A70
:10D19000AE212046FFF7AEF804E00D4800680749CD
:10D1A0000968884700BF002D02D0002E00D000E0A3
:10D1B000B4E700BF00BFA6E7402100204C210020BB
:10D1C000412100209C2E02005021002048210020F7
:10D1D000442100200C48008CC0B2012812D10A481A
:10D1E000808C0007000F00280CD10748806AF021CE
:10D1F0000840402806D10448C06A0840002801D1F0
:10D20000012070470020FCE7C00F00F01948008C97
:10D21000C0B201282CD11748808C0007000F0028CD
:10D2200026D11448806AF0210840002806D1114810
:10D23000C06A0840002801D1012070470D48806A6B
:10D24000F0210840102806D10A48C06A084000288A
:10D2500001D10120F1E70748806AF0210840302819
:10D2600006D10448C06A0840002801D10120E4E743
:10D270000020E2E7C00F00F01348008CC0B2012884
:10D280001FD11148808C0007000F002819D10E48CB
:10D29000806AF0210840A02806D10B48C06A0840E7
:10D2A000002801D1012070470748806AF02108401A
:10D2B000D02806D10448C06A0840002801D10120C6
:10D2C000F1E70020EFE70000C00F00F0014608681A
:10D2D000002801D002680A607047000008B53C4889
:10D2E0000078002808D13B48007800013A4A8118AC
:10D2F0003A480068FDF772FF292001F075FE3549B4
:10D3000009780901344A8918091D314A12785300F5
:10D31000D218885440B2324908702B2001F064FEC4
:10D320002C49097809012C4A8918091D284A1278C4
:10D330005300D2188918487040B22A4908702D202D
:10D3400001F052FE234909780901234A8918091D71
:10D350001F4A12785300D2188918887040B22249A7
:10D3600008700020085600901E480023C3561C4831
:10D37000002282561DA10020FEF732F914480078E1
:10D38000401C134908700846007804281ED1114932
:10D3900009780901104A881801F030F81848007817
:10D3A000401C174908700020094908700948007896
:10D3B000002801D1012000E000200649087009780A
:10D3C0000901054A88181021FDF7E3FE08BD000099
:10D3D00060200020612000206C24002054200020C8
:10D3E0004E2000204F20002050200020494E543174
:10D3F0003A2025642C2025642C2025640D0A000089
:10D400006220002070B51C4804781C48066826E09D
:10D4100019484168182060430D18601CC4B21648B2
:10D420008078A04200D100242878022802D0032866
:10D4300012D103E0686804F0EFFA0EE007E00F494C
:10D440000868002101740D4AC169116000BF0B48D2
:10D4500000680028F3D100E000BF00BF00BF06480D
:10D460004078A042D4D105480068B04201D00120E4
:10D4700070BD0020FCE7000098200020A0200020C4
:10D48000F8B50546374806685BE0002D02D02C460B
:10D49000E56929E034494A68097818235943501846
:10D4A00031490978491C304A11701146097892783F
:10D4B000914202D100212C4A11704468017801295F
:10D4C00002D1217C002900D03BE081686160C16805
:10D4D000A1600169E1604169A161244909780029DD
:10D4E00001D00021616000BF214960680968401ACD
:10D4F0000002000A1F49884208D21D496068096875
:10D5000004F0E0F9A168401820600FE01848616855
:10D51000006804F0D7F90746A068B84203D9A068AC
:10D52000C01B206001E00020206000BF0020606080
:10D53000A060012020740020E061204604F036FA4B
:10D5400000BF002DA1D108480078074949788842DA
:10D550009BD104480068B04201D00120F8BD0020F2
:10D56000FCE70000A020002098200020B920002027
:10D57000A4200020FFFF7F0008B52E48016800208E
:10D58000FEF72EF82CA32FA231A10020FEF728F8D9
:10D5900003F02EFC0446224632A10020FEF720F8BC
:10D5A00003F02AFC0446224633A10020FEF718F8B7
:10D5B000364837494318024636A10020FEF710F8D6
:10D5C0003E4800903EA10020009AFEF709F800F0C6
:10D5D000C1F801F033FC2CE03F480068002801D17D
:10D5E00003F0E6FD3C480078C007C00F002803D0D8
:10D5F000012000F0B5F81CE037480068022108401F
:10D60000002803D0022000F0ABF812E03248006896
:10D6100004210840002803D0042000F0A1F808E00D
:10D620002D48006808210840002802D0082000F09A
:10D6300097F8D1E7801D020031333A34323A34355D
:10D64000000000004D617920203720323031370052
:10D650002D2D3E206D61696E28292C2025732025F3
:10D66000730D0A002D2D3E20617070206E616D6576
:10D670003A2025730D0A00002D2D3E207665727329
:10D68000696F6E203A2025730D0A0000E82B0020F8
:10D69000000800002D2D3E20737461636B206261D1
:10D6A00073653A20307825782C20737461636B2081
:10D6B000746F703A20307825780D0A000020002021
:10D6C0002D2D3E2052414D2053746172743A20300A
:10D6D0007825780D0A00000000200020FFB581B0F9
:10D6E00005460E461446A888871C2088801CC11950
:10D6F0000498814202D90C2005B0F0BDFE2F01D95B
:10D700000C20F9E7781C218870542088401C208068
:10D71000FF20218870542088401C20802288911985
:10D72000288804F05DFA218840182080A888002805
:10D730000EDDA868002801D10720DDE7AA8823882C
:10D740009819A968FDF70CFD2088A9884018208049
:10D750000020D1E700200149086070470020002028
:10D76000054909688143044A11601146097809078F
:10D77000090F11607047000000200020FFB583B042
:10D7800005460F4614462878012805D168780028F8
:10D7900002D1072007B0F0BD2088801C069988427E
:10D7A00009D82878012808D12088801C6978411878
:10D7B0000698814201D90C20ECE721880698401A8E
:10D7C000801E86B201962188891CC81901A97DDFB7
:10D7D000029000BF0298002801D00298DAE700BF4B
:10D7E0002878022806D168468088B04202DC0920E9
:10D7F00000900BE0082000902878012805D1687877
:10D80000B04202DC6878019000E0019668468088AA
:10D81000FE2801D90C20BDE768468088401C21887D
:10D8200078542088401C20802188009878542088D3
:10D83000401C2080218868468088081820800020AD
:10D84000A8E7000070B59CB00024202105A8FDF7D2
:10D85000A0FC00200290039004900425274A28A1F0
:10D86000FDF7BEFE2948C068002801D10620054307
:10D870002748006801903C210DA8FDF78AFC012192
:10D8800008A801750621417500218175C575012122
:10D890006846818701A910910021C943018101F0E7
:10D8A00067FA049001F068FA01466846818102A88F
:10D8B0001690202105A8FDF76CFC01216846C17572
:10D8C000FFF7AEFB0990FFF7BBFB0A900020114B5E
:10D8D00005AA014600900DA8FEF7CCFE044600BF45
:10D8E0002646002E06D000BF0BA2AF213046FEF721
:10D8F00001FD00BF00BF1CB070BD0000E8240200A5
:10D900002D2D3E2025730D0A00000000B4230020B9
:10D910001C250200A1100200536F757263655C6ED6
:10D92000726635315F7461675F61647665727469D0
:10D9300073696E672E63000070B505460E46144687
:10D9400029480560466084602848281800280FD0C0
:10D9500001281CD12448C460254823494861084651
:10D96000C068008888610846C0684068C8610EE0E9
:10D970001D480461006980681B49486108460069C8
:10D9800000888861084600694068C86100BF00BF20
:10D9900015484369426917A10020FDF721FE12488E
:10D9A00082691DA10020FDF71BFE0F48C2691EA160
:10D9B0000020FDF715FE0C4800680B4840680A4837
:10D9C00080680948C06808480069074840690648F7
:10D9D00080690548C06918A10020FDF701FE03F029
:10D9E0009FFD03F0E5FB70BD60210020FFBFFFFF3E
:10D9F000018000000D0A202A2A2A204E5246204586
:10DA000052524F522C20636F64653A20307825784B
:10DA100020282564290D0A006C696E6520202020CD
:10DA20003A2025640D0A000066696C6520202020DC
:10DA30003A2025730D0A00002D2D3E20456E746599
:10DA400072696E6720536C656570204D6F64652E3A
:10DA50002E2E0D0A0000000010B504462046103896
:10DA60000300FEF73FF9110A10161C22282E343A43
:10DA700040464C52585E646A7000224633A1002032
:10DA8000FDF7AEFD5FE0224639A10020FDF7A8FDBD
:10DA900059E0224640A10020FDF7A2FD53E02246B6
:10DAA00048A10020FDF79CFD4DE0224650A100203A
:10DAB000FDF796FD47E0224658A10020FDF790FDB6
:10DAC00041E0224660A10020FDF78AFD3BE02246AE
:10DAD00067A10020FDF784FD35E022466FA10020FC
:10DAE000FDF77EFD2FE0224677A10020FDF778FDAF
:10DAF00029E022467EA10020FDF772FD23E02246A8
:10DB000086A10020FDF76CFD1DE022468CA10020BF
:10DB1000FDF766FD17E0224693A10020FDF760FDAA
:10DB200011E0224699A10020FDF75AFD0BE02246A4
:10DB3000A0A10020FDF754FD05E02246AAA1002087
:10DB4000FDF74EFD00BF00BF10BD00002D2D3E2093
:10DB5000424C455F4741505F4556545F434F4E4EE0
:10DB60004543544544202830782578290D0A000083
:10DB70002D2D3E20424C455F4741505F4556545F36
:10DB8000444953434F4E4E45435445442028307832
:10DB90002578290D0A0000002D2D3E20424C455FBE
:10DBA0004741505F4556545F434F4E4E5F50415280
:10DBB000414D5F55504441544520283078257829FF
:10DBC0000D0A00002D2D3E20424C455F4741505F1D
:10DBD0004556545F5345435F504152414D535F5248
:10DBE000455155455354202830782578290D0A0091
:10DBF0002D2D3E20424C455F4741505F4556545FB6
:10DC00005345435F494E464F5F5245515545535426
:10DC1000202830782578290D0A0000002D2D3E207F
:10DC2000424C455F4741505F4556545F5041535306
:10DC30004B45595F444953504C4159202830782571
:10DC400078290D0A000000002D2D3E20424C455F32
:10DC50004741505F4556545F4B45595F50524553BD
:10DC6000534544202830782578290D0A000000000B
:10DC70002D2D3E20424C455F4741505F4556545F35
:10DC8000415554485F4B45595F5245515545535492
:10DC9000202830782578290D0A0000002D2D3E20FF
:10DCA000424C455F4741505F4556545F4C45534396
:10DCB0005F44484B45595F524551554553542028C0
:10DCC00030782578290D0A002D2D3E20424C455FE5
:10DCD0004741505F4556545F415554485F53544146
:10DCE000545553202830782578290D0A000000006B
:10DCF0002D2D3E20424C455F4741505F4556545FB5
:10DD0000434F4E4E5F5345435F5550444154452069
:10DD10002830782578290D0A000000002D2D3E209E
:10DD2000424C455F4741505F4556545F54494D450D
:10DD30004F5554202830782578290D0A000000001E
:10DD40002D2D3E20424C455F4741505F4556545F64
:10DD5000525353495F4348414E4745442028307849
:10DD60002578290D0A0000002D2D3E20424C455FEC
:10DD70004741505F4556545F4144565F5245504FAE
:10DD80005254202830782578290D0A002D2D3E2068
:10DD9000424C455F4741505F4556545F5345435F92
:10DDA00052455155455354202830782578290D0A7D
:10DDB000000000002D2D3E20424C455F4741505F42
:10DDC0004556545F434F4E4E5F504152414D5F5553
:10DDD00050444154455F52455155455354202830D5
:10DDE000782578290D0A00002D2D3E20424C455FF4
:10DDF0004741505F4556545F5343414E5F52455132
:10DE00005F5245504F5254202830782578290D0A0A
:10DE10000000000070B586B000240021059105A81F
:10DE200012DF6846007D00285ED100BF0023482233
:10DE30002E492F4803F0BEFB054600BF2E46002E9C
:10DE400006D000BF2BA27A213046FEF753FA00BF5E
:10DE500000BF00BF14216846FDF79BF96A46012107
:10DE6000002003F085FB044600BF2546002D06D0A8
:10DE700000BF20A284212846FEF73CFA00BF00BF65
:10DE8000012069460880684603F05EFB044600BF37
:10DE90002546002D06D000BF16A28E212846FEF78B
:10DEA00029FA00BF00BF1B4803F040FB044600BF37
:10DEB0002546002D06D000BF0EA293212846FEF76E
:10DEC00019FA00BF00BF144803F072FC044600BFFB
:10DED0002546002D06D000BF06A298212846FEF751
:10DEE00009FA00BF00BF00BF06B070BD802100204E
:10DEF00006200020536F757263655C6E7266353163
:10DF00005F7461675F626C655F737461636B2E63DE
:10DF100000000000C5CB0100DD17020010B504466B
:10DF200003F0E0FD10BD000070B5FFF773F8044684
:10DF3000C00F001940100B490870FFF765F8044640
:10DF4000FFF786F805462146FDF7F6F80649087002
:10DF5000064800680978401A05490860012005490B
:10DF6000087070BD4C2000204D200020542000205F
:10DF70005C2000205820002010B50446022C40D11F
:10DF800020480078012816D11F480078401C1E49FF
:10DF9000087008460078EF2803DC0846007828DF80
:10DFA0002FE001201949087000201649087018A1B7
:10DFB000FDF716FB25E01348007802280CD101205C
:10DFC0001749087000200F4908700F48027815A102
:10DFD0000020FDF705FB14E00A480078032810D163
:10DFE00017480088401C1649088001201549087010
:10DFF0000020044908701248028813A10020FDF790
:10E00000EFFA10BD702000206A2000206B20002055
:10E010002D2D3E204462204572617365640D0A0017
:10E020006C2000202D2D3E20446220506167652029
:10E030004572617365643A2025640D0A0000000092
:10E040006E2000206D2000202D2D3E2044622057A0
:10E050007269746520436F6D706C6574653A2063F6
:10E060006F756E743A25640D0A00000001488088BF
:10E07000704700006420002010B500201C49088073
:10E0800048808880252424030AE0204600F04EF8CA
:10E09000002804D116488088401C15498880103417
:10E0A000EF2080028442F0D311488088002809D0F4
:10E0B00000F04EF80E49488008464088898840188C
:10E0C0000B4908800A4802880AA10020FDF788FA57
:10E0D000074842880BA10020FDF782FA0448828895
:10E0E0000CA10020FDF77CFA0148808810BD0000DB
:10E0F000642000202D2D3E20686561643A2025644F
:10E100000D0A00002D2D3E207461696C3A202564B3
:10E110000D0A00002D2D3E20656E74727920636F0C
:10E12000756E743A2025640D0A00000010B504468F
:10E1300010222146054800F020F804480068401CE1
:10E14000002801D1012010BD0020FCE78C24002014
:10E1500070B500252524240308E02046FFF7E6FFDC
:10E16000002800D106E01034681C85B2EF20800240
:10E170008442F2D300BF284670BD70B504460D46F8
:10E180001646324629462046FCF7EAFF002070BDBD
:10E1900010B5154A15A10020FDF722FA5B239B025A
:10E1A0001A4615A10020FDF71BFA5B221FA10020D3
:10E1B000FDF716FA402226A10020FDF711FA0422ED
:10E1C0002CA10020FDF70CFA5B22920131A1002066
:10E1D000FDF706FA5B22120236A10020FDF700FAD5
:10E1E000FFF74AFF10BD00002E2702002D2D3E2014
:10E1F00025730D0A000000002D2D3E202844425FAB
:10E20000414444524553535F454E44202D204442DF
:10E210005F414444524553535F5354415254293A49
:10E2200020307825782C2025640D0A002D2D3E20E5
:10E230004D41585F44425F504147455F4E554D4206
:10E24000455220202020203A2025640D0A0000009D
:10E250002D2D3E204D41585F44425F454E5452495A
:10E2600045535F5045525F504147453A2025640D64
:10E270000A0000002D2D3E2044425F454E54525965
:10E280005F4C454E4754485F33323A2025640D0AAF
:10E29000000000002D2D3E204D41585F44425F4557
:10E2A0004E5452494553202020203A2025640D0A1F
:10E2B000000000002D2D3E204D41585F44425F522A
:10E2C00045434F524453202020203A2025640D0A14
:10E2D0000000000070B50646314800883049498882
:10E2E000884256D02E484088000125210903451850
:10E2F000102229463046FFF740FF29484088401C3D
:10E3000027494880084640885B218901884202D31A
:10E31000002023494880002421480088204949885A
:10E3200088420BD11E4840888009044694341C481A
:10E33000408880091A494880088013E0184880788E
:10E340008006800E00280DD1EF2415484088002853
:10E3500008D013494988491E09012522120388184B
:10E36000840A00BF002C07D002200E49087000204C
:10E370000D490870204628DF0948438802880BA110
:10E380000020FDF72DF92A4615A10020FDF728F9F8
:10E3900004E0FF2210213046FCF7F4FE70BD0000BF
:10E3A00064200020702000206C2000202D2D3E20B5
:10E3B0006E726635315F7461675F64625F7265615A
:10E3C000645F656E74727928293A20686561643AE1
:10E3D0002025642C207461696C3A2025640D0A00A4
:10E3E0002D2D3E20705F726561645F6164647265AB
:10E3F00073733A20307825780D0A0000F8B504468A
:10E400001B48008800012521090345182846FFF70D
:10E410008DFE00282AD02A4616A10020FDF7E0F83C
:10E4200003201C49087000201B4908700422214663
:10E43000284629DF064600BF3746002F06D000BF1A
:10E4400016A2C2213846FDF755FF00BF00BF08489D
:10E450000088401C06490880084600885B21890125
:10E46000884202D300200249088000BFF8BD0000A6
:10E47000642000202D2D3E20735F705F77726974D9
:10E48000655F616464726573733A20307825780D36
:10E490000A000000702000206D200020536F75726C
:10E4A00063655C6E726635315F7461675F64622EAE
:10E4B0006300000003B583B034A10020FDF790F89D
:10E4C0006846027B39A10020FDF78AF86846407B48
:10E4D0008207920F3CA10020FDF782F86846407B3E
:10E4E0004007C20F3FA10020FDF77AF86846807B05
:10E4F0004007C00F00906846807B8007C30F6846C6
:10E50000807BC207D20F3EA10020FDF769F8684664
:10E51000C07B4007C00F00906846C07B8007C30FD8
:10E520006846C07BC207D20F41A10020FDF758F812
:10E530006846007C4007C10F6846007C0007C00F9A
:10E54000019100906846007C8007C30F6846007CFC
:10E55000C207D20F42490020FDF742F86846407CCE
:10E560004007C10F6846407C0007C00F0191009032
:10E570006846407C8007C30F6846407CC207D20FC4
:10E5800038490020FDF72CF805B000BD2D2D3E20A8
:10E590004741502041757468656E746963617469A0
:10E5A0006F6E205374617475730D0A00202D206105
:10E5B0007574685F73746174757320202020202047
:10E5C0003A2025640D0A0000202D206572726F72BA
:10E5D0002073726320202020202020203A202564F0
:10E5E0000D0A0000202D20626F6E646564202020DB
:10E5F00020202020202020203A2025640D0A000021
:10E60000202D20736D315F6C6576656C7320202042
:10E61000202020203A206C76313A202564206C7628
:10E62000323A202564206C76333A2025640D0A00A6
:10E63000202D20736D325F6C6576656C7320202011
:10E64000202020203A206C76313A202564206C76F8
:10E65000323A202564206C76333A2025640D0A0076
:10E66000142E0200582E020010B5044620465038E1
:10E670000300FDF737FB06040A10161C2228224669
:10E6800012A10020FCF7ACFF1DE0224618A10020DB
:10E69000FCF7A6FF17E0224621A10020FCF7A0FF0F
:10E6A00011E0224629A10020FCF79AFF0BE0224648
:10E6B0002EA10020FCF794FF05E0224635A10020A2
:10E6C000FCF78EFF00BF00BF10BD00002D2D3E20C7
:10E6D000424C455F47415454535F4556545F57522F
:10E6E000495445202830782578290D0A000000007B
:10E6F0002D2D3E20424C455F47415454535F4556B3
:10E70000545F52575F415554484F52495A455F52E2
:10E71000455155455354202830782578290D0A0055
:10E720002D2D3E20424C455F47415454535F455682
:10E73000545F5359535F415454525F4D49535349A9
:10E740004E47202830782578290D0A002D2D3E20AF
:10E75000424C455F47415454535F4556545F4856B9
:10E7600043202830782578290D0A00002D2D3E20E1
:10E77000424C455F47415454535F4556545F5343A1
:10E780005F434F4E4649524D202830782578290D59
:10E790000A0000002D2D3E20424C455F4741545455
:10E7A000535F4556545F54494D454F5554202830CA
:10E7B000782578290D0A000010B52A4802882AA178
:10E7C0000020FCF70DFF32480078800031490A58DC
:10E7D00031A10020FCF704FF06222D49491C36A078
:10E7E000FDF79EFE2A48C07980002A490A5835A1C3
:10E7F0000020FCF7F5FE0622254908312EA0FDF782
:10E800008FFE2348807B800036490A5836A10020BD
:10E81000FCF7E6FE1E48C07BC207D20F38A10020DD
:10E82000FCF7DEFE1A48C07B42083BA10020FCF743
:10E83000D7FE1748028A3EA10020FCF7D1FE1448FB
:10E84000428A41A10020FCF7CBFE1148828A44A1F4
:10E850000020FCF7C5FE0E48C28A47A10020FCF745
:10E86000BFFE10BD142000202D2D3E20436F6E6E84
:10E87000656374696F6E204576656E742C206861DF
:10E880006E646C653A20307825780D0A000000002F
:10E8900088230020342202005065657220416464A0
:10E8A00072657373202D20616464725F7479706582
:10E8B000203A2025730D0A00202D20616464723AED
:10E8C000200000004F776E204164647265737320EE
:10E8D0002D20616464725F74797065203A2025731D
:10E8E0000D0A000018220200526F6C6520202020C3
:10E8F00020202020202020203A2025730D0A00000F
:10E9000049524B204D617463682020202020202034
:10E910003A2025640D0A000049524B204D61746372
:10E920006820496E646578203A2025640D0A00004D
:10E930006D696E5F636F6E6E5F696E74657276612E
:10E940006C3A2025640D0A006D61785F636F6E6E0E
:10E950005F696E74657276616C3A2025640D0A00F9
:10E96000736C6176655F6C6174656E6379202020DD
:10E97000203A2025640D0A00636F6E6E5F73757018
:10E980005F74696D656F7574203A2025640D0A0007
:10E9900010B50348027803A10020FCF721FE10BD4A
:10E9A000162000202D2D3E20446973636F6E6E6526
:10E9B0006374204576656E742C20726561736F6E8A
:10E9C00020636F64653A20307825780D0A000000D6
:10E9D0000FB410B50446224618A10020FCF700FE33
:10E9E0006846007F8007C20F1AA10020FCF7F8FDDF
:10E9F0006846007FC207D20F1BA10020FCF7F0FD84
:10EA00006846007F82081DA10020FCF7E9FD6846EA
:10EA1000007F820803A91EA0FDF782FD6846C28B15
:10EA20001DA10020FCF7DCFD082208A91EA0FDF7AF
:10EA300077FD10BC08BC04B0184700002D2D3E2007
:10EA400047415020456E63204B65793A2025730D70
:10EA50000A000000202D20617574682020203A20D3
:10EA600025640D0A00000000202D206C65736320D2
:10EA700020203A2025640D0A00000000202D206C83
:10EA8000746B5F6C656E3A2025640D0A000000000F
:10EA9000202D206C746B0000202D20656469763A6F
:10EAA0002025640D0A000000202D2072616E640094
:10EAB0000FB410B5044622460CA10020FCF790FDCF
:10EAC000102203A90FA0FDF72BFD6846027F10A1BD
:10EAD0000020FCF785FD062207A9013111A0FDF7F2
:10EAE0001FFD10BC08BC04B0184700002D2D3E20AF
:10EAF000474150204964204B65793A2025730D0A1F
:10EB000000000000202D206C746B3A2000000000F3
:10EB1000202D206164647220747970653A20256428
:10EB20000D0A0000202D20616464723A200000006C
:10EB300010B50446012C04D0022C08D0032C12D1AD
:10EB40000BE0224609A10020FCF74AFD0BE022461B
:10EB50000FA10020FCF744FD05E0224616A100208D
:10EB6000FCF73EFD00BF00BF10BD00002D2D3E2074
:10EB7000424C455F4556545F54585F434F4D504C8F
:10EB8000455445202830782578290D0A00000000DA
:10EB90002D2D3E20424C455F4556545F55534552FE
:10EBA0005F4D454D5F5245515545535420283078AF
:10EBB00025780D0A290000002D2D3E20424C455F8E
:10EBC0004556545F555345525F4D454D5F52454C38
:10EBD00045415345202830782578290D0A0000004A
:10EBE00001B50020C04304490880044869460978FB
:10EBF0000170FFF7CDFE08BD142000201620002074
:10EC000070477047704710B50446E168A06800F08F
:10EC10002BFB10BD3EB50446A2696169E069019213
:10EC200000910290A0882369E268A16800F008FBC7
:10EC30003EBD704710B50446A06800F079FB10BDDA
:10EC400010B50446A068FFF7CBFF10BD70477047B2
:10EC50007047704738B50446A069009020460830D8
:10EC60000FC800F0E5FB38BDF0B585B004460025BF
:10EC7000E168A068049103900499039800F048FCAF
:10EC8000049903980291019068460079C007C00F6B
:10EC9000002819D000F076F8064600F06FF8074615
:10ECA00000F05EF833463A46002100907FDF0546CB
:10ECB00000BF2E46002E06D000BF04A245213046DC
:10ECC000FDF718FB00BF00BF05B0F0BD536F7572B4
:10ECD00063655C6E726635315F7461675F6F6E5F2E
:10ECE000626C655F6576745F6761702E630000001B
:10ECF0007047000010B50446207A800003490A5886
:10ED000003A10020FCF76CFC10BD000004260200EB
:10ED10002D2D3E202573000010B50446204601F03D
:10ED200065F910BD10B50446204601F045FB10BD45
:10ED300010B50446204601F040FB10BD10B5044656
:10ED4000204601F003FD10BD10B50446204601F039
:10ED5000C1FD10BD10B50446204601F07DFE10BD7A
:10ED60000148008870470000142000200D207047E3
:10ED700000487047DA230020092070470048704798
:10ED80000A20002000487047242000200148006825
:10ED90007047000054200020002107480079002817
:10EDA00003D10548007B002800D00121002901D1B2
:10EDB000002070470048FCE7E423002000200549BC
:10EDC0000979002903D10349097B002900D00320D8
:10EDD00070470000E42300207CB504460620012192
:10EDE0008140134A116000BF1425002600203346DD
:10EDF0000246014601940090284602F0E8F800BF60
:10EE0000FDF7E0FB701E0B498860C00748600620D4
:10EE100001218140084A116000BF0121FCF700FB7D
:10EE2000062001218140024A803A116000BF7CBD6A
:10EE300080E100E00063004080E200E010B5FEF7F2
:10EE400053F901F011FF00F057F800F069FEFFF7E9
:10EE50009FF900F063F810BD10B506210148FCF7DA
:10EE600098F910BD1C20002010B5074A07A100200A
:10EE7000FCF7B6FB18210848FCF78BF90020C043CB
:10EE80000649088010BD0000442202002D2D3E20BE
:10EE900025730D0A000000008823002014200020A4
:10EEA00010B5054A05A10020FCF79AFB0648002191
:10EEB0000170417010BD00007C2302002D2D3E200A
:10EEC00025730D0A000000001720002010B5054A28
:10EED00005A10020FCF784FB14210648FCF759F932
:10EEE00010BD0000A92302002D2D3E2025730D0A20
:10EEF00000000000A023002010B5FEF799F80101E2
:10EF0000081A0A2148430149086010BD4820002022
:10EF100010B501F053FAFEF7AFF810BD10B50020A0
:10EF20000A49087000F02AFD8F2009490870002066
:10EF300048700849064800F075FD064840783328B7
:10EF400001D100F065F800F007F810BD5421002051
:10EF5000552100205721002010B52F21202000F03E
:10EF60009FF806247D21C9006143084601F086FF11
:10EF700000BF0921212000F093F84021222000F059
:10EF80008FF80021232000F08BF80021242000F0CE
:10EF900087F80021252000F083F80021262000F0CA
:10EFA0007FF8FEF737F804462146322000F078F863
:10EFB0000021332000F074F8B120084908700020C7
:10EFC00048700749054800F02DFD012005490870EB
:10EFD0002A21302000F064F810BD000055210020E7
:10EFE000572100205421002010B5044680202043E2
:10EFF00005490870002048700449034800F012FDDC
:10F000000248407810BD0000552100205721002003
:10F0100070B50024002500BF08E06200174BD2182D
:10F0200051786200985C00F03BF8641C172CF4D314
:10F030003120FFF7D9FF3520FFF7D6FF002416E077
:10F0400061000E4A505CFFF7CFFF054660000B4998
:10F0500040184078A84209D000BF094E00BF09A25D
:10F0600058213046FDF746F900BF00BF641C172C3D
:10F07000E6D301D3012070BD0020FCE7F228020096
:10F0800003800000536F757263655C6E7266353184
:10F090005F7461675F6C69733364682E630000009E
:10F0A00070B504460D46034804704570024900F0EF
:10F0B000B9FC70BD552100205721002000201849BF
:10F0C000C86301201749C863C86300201649C86394
:10F0D000C863C86301201549C86300201449C86388
:10F0E00001201449C86300201349C8631349C86349
:10F0F00001201349C8631349C8631349C8631349FE
:10F10000C8631349C863C86300201249C86301205B
:10F110001149C86300201149C8631149C863704789
:10F12000C02F0040C03F0040C04F0040C06F0040B3
:10F13000C07F0040C08F0040C09F0040C0AF004073
:10F14000C0BF0040C0CF0040C0DF0040C0EF004063
:10F15000C0FF0040C00F0140C01F0140C02F014050
:10F16000C03F0140704770477047000030B591B014
:10F17000402101A8FCF70DF81948016801A8FDF726
:10F1800027FD00BF10A8007801090901491C10A83B
:10F1900001700078F0218843103010A9087000BF7A
:10F1A00000BF10A8407800090001487010A84078FE
:10F1B000F021884310A9487000BF01A8FDF728FC82
:10F1C000044600BF2546002D06D000BF05A2402101
:10F1D0002846FDF78FF800BF00BF11B030BD00001A
:10F1E000D81E0200536F757263655C6E72663531AE
:10F1F0005F7461675F626C655F737461636B2E63DC
:10F200000000000070B504460D4618210A48FBF7BF
:10F21000C0FFFFF7D3FD08490872FFF7BDFD06499F
:10F22000C860084604824582C068002801D00120D9
:10F2300070BD0020FCE70000B423002070470000F0
:10F240000FB410B5044606480480182203A90548E7
:10F25000FBF786FFFFF7B0FA10BC08BC04B01847F4
:10F26000142000208823002003B58BB006220BA9B0
:10F270002548FBF775FF244903C90A910990FFF758
:10F2800019F9102221496846FBF76AFF1C221F4921
:10F290000C3904A8FBF764FF1DA004A90EC9FFF7F1
:10F2A00097FB0B221C496846FBF75AFF18221A49A4
:10F2B0000C3905A8FBF754FF15A005A90EC9FFF7E7
:10F2C000F7FB102215496846FBF74AFF1C22134939
:10F2D0000C3904A8FBF744FF11A004A90EC9FFF7DD
:10F2E00077FB0B2211496846FBF73AFF17220F49BB
:10F2F0000C3905A8FBF734FF09A005A90EC9FFF7D3
:10F30000D7FB0DB000BD00001C2000201024002001
:10F31000656E635F6F776E00482400202C24002008
:10F32000656E635F70656572000000005F240020F9
:10F3300001B504496846007808706846407848700E
:10F3400008BD000017200020F8B504460D46002631
:10F350000020009000BF6846007801090901491C9F
:10F36000009168460078F02188431030009000BF7B
:10F370002A46214668467CDF064600BF3746002FF6
:10F3800006D000BF03A23D213846FCF7B3FF00BF03
:10F3900000BFF8BD536F757263655C6E7266353180
:10F3A0005F7461675F6761705F706172616D732E1A
:10F3B000630000007CB50024002000900190FF2134
:10F3C0009131684601804900418000218180FF2100
:10F3D0009131C1807ADF044600BF2546002D06D05A
:10F3E00000BF0BA225212846FCF784FF00BF00BF09
:10F3F000002078DF044600BF2546002D06D000BF60
:10F4000003A228212846FCF775FF00BF00BF7CBD82
:10F41000536F757263655C6E726635315F746167D8
:10F420005F6761705F706172616D732E63000000D1
:10F430000FB410B5142202A90348FBF791FE10BCCB
:10F4400008BC04B018470000A023002010B52B4AC8
:10F450002BA10020FCF7C4F805212C48FBF799FEEE
:10F460002A48007840084000401C28490870084697
:10F4700000780221884325490870084600787021E9
:10F48000884330302149087008460078802188433D
:10F490001E49087007204870102088700846C07800
:10F4A00040084000C8700846C078022188431749C8
:10F4B000C8700846C078042188431449C8700846BB
:10F4C000C078082188431149C8700846007940086F
:10F4D0004000087108460079022188430B490871F1
:10F4E00008460079042188430849087108460079D4
:10F4F000082188430549087110BD00001021020051
:10F500002D2D3E2025730D0A000000000A2000204A
:10F5100013B5052269467648FBF722FE7548C07888
:10F52000400840007249C978C907C90F08437149AA
:10F53000C8700846C078022188436D49C978890798
:10F54000C90F49000222114008436A49C8700846A1
:10F55000C078042188436649C9784907C90F8900E2
:10F560000422114008436349C8700846C078082146
:10F5700088435F49C9780907C90FC90008221140AB
:10F5800008435C49C8700846007940084000584963
:10F590000979C907C90F0843564908710846007917
:10F5A00002218843524909798907C90F490002227B
:10F5B000114008434F4908710846007904218843E7
:10F5C0004B4909794907C90F8900042211400843B2
:10F5D0004849087108460079082188434449097957
:10F5E0000907C90FC90008221140084341490871A1
:10F5F00041A10020FBF7F4FF3D480078C207D20F7D
:10F6000044A10020FBF7ECFF394800788007C20FC7
:10F6100048A10020FBF7E4FF354800784007C20FFF
:10F620004CA10020FBF7DCFF314800780007C20F37
:10F6300050A10020FBF7D4FF2D4800784006420F70
:10F6400054A10020FBF7CCFF29480078C20959A13A
:10F650000020FBF7C5FF264842785EA10020FBF79B
:10F66000BFFF2348827863A10020FBF7B9FF204841
:10F670000079C207D20F67A10020FBF7B1FF1C4839
:10F6800000798007C20F6BA10020FBF7A9FF184883
:10F6900000794007C20F6FA10020FBF7A1FF1448BB
:10F6A00000790007C20F73A10020FBF799FF1048F3
:10F6B000C078C207D20F77A10020FBF791FF0C485A
:10F6C000C0788007C20F7BA10020FBF789FF0848A4
:10F6D000C0784007C20F7FA10020FBF781FF0448DC
:10F6E000C0780007C20F83A10020FBF779FF1CBD83
:10F6F0000F2000200A2000202D2D3E207365635F1F
:10F70000706172616D735F726571756573740D0AF6
:10F71000000000002D2D3E20626F6E64202020200E
:10F72000202020202020203A203078253032780DEB
:10F730000A0000002D2D3E206D69746D20202020D0
:10F74000202020202020203A203078253032780DCB
:10F750000A0000002D2D3E206C65736320202020C0
:10F76000202020202020203A203078253032780DAB
:10F770000A0000002D2D3E206B6579707265737351
:10F78000202020202020203A203078253032780D8B
:10F790000A0000002D2D3E20696F5F6361707320A9
:10F7A000202020202020203A203078253032780D6B
:10F7B0000A0000002D2D3E206F6F622020202020A7
:10F7C000202020202020203A203078253032780D4B
:10F7D0000A0000002D2D3E206D696E5F6B65795F1C
:10F7E00073697A652020203A203078253032780DF0
:10F7F0000A0000002D2D3E206D61785F6B65795FFA
:10F8000073697A652020203A203078253032780DCF
:10F810000A0000002D2D3E206B646973745F7065D3
:10F8200065722E656E63203A203078253032780D6F
:10F830000A0000002D2D3E206B646973745F7065B3
:10F8400065722E696420203A203078253032780D98
:10F850000A0000002D2D3E206B646973745F706593
:10F8600065722E7369676E3A203078253032780DD4
:10F870000A0000002D2D3E206B646973745F706573
:10F8800065722E6C696E6B3A203078253032780DB7
:10F890000A0000002D2D3E206B646973745F6F7742
:10F8A0006E2E656E6320203A203078253032780D38
:10F8B0000A0000002D2D3E206B646973745F6F7722
:10F8C0006E2E69642020203A203078253032780D61
:10F8D0000A0000002D2D3E206B646973745F6F7702
:10F8E0006E2E7369676E203A203078253032780D9D
:10F8F0000A0000002D2D3E206B646973745F6F77E2
:10F900006E2E6C696E6B203A203078253032780D7F
:10F910000A00000070B5044600250C4A0CA1002026
:10F92000FBF75EFE0D4804700146485777DF054639
:10F9300000BF2E46002E06D000BF09A21F21304670
:10F94000FCF7D8FC00BF00BF70BD00009F1E020086
:10F950002D2D3E2025730D0A0000000004200020FC
:10F96000536F757263655C6E726635315F74616783
:10F970005F74785F706F7765722E63007CB527487F
:10F98000274908600220FFF727FA192001F034FB0D
:10F99000182001F031FB1725002600200090334687
:10F9A000024601460190284601F011FB00BF1E20CF
:10F9B00001F022FB19201A49096805221202891850
:10F9C00088601821164800688018C1601720144903
:10F9D000096889180861192001F035FB182001F029
:10F9E00032FB1E2001F02FFBE8070D4909680522B4
:10F9F0001202891848620624094800681146401816
:10FA00004465002106480068FF3001308160012014
:10FA100003490968891808607CBD00000030004077
:10FA20005C21002070B505460C461E2000BF052154
:10FA300009070A460121814005231B02D318D9601A
:10FA400000BF00BF00202070607028781C49096842
:10FA5000052212028918C86168781949096889184D
:10FA6000C86100BF00F03EF80646002E06D000BF79
:10FA700014A2A8213046FCF73DFC00BF00BF10488F
:10FA800000680521090240188069207000BF00F05D
:10FA900029F80646002E06D000BF0AA2AB21304648
:10FAA000FCF728FC00BF00BF0548006805210902DB
:10FAB0004018806960701E2001F0C5FA70BD00001A
:10FAC0005C210020536F757263655C6E7266353120
:10FAD0005F7461675F737069305F6C69733364680A
:10FAE0002E630000002100E0491C0C480068FF3034
:10FAF00001308068002803D10120C0038142F3D384
:10FB0000002206480068FF30013082600120C003F7
:10FB1000814201D3801C70470020FCE75C2100205B
:10FB200010B5FEF777F90020FFF7F4FEFFF742FC6F
:10FB3000FFF784FBFFF78AFCFFF78EF90A4800689D
:10FB4000FBF732FB84B2214607480068FFF7FCFB55
:10FB5000FFF78AF9FFF7A4F9FFF7B8F9FFF706FBFB
:10FB6000FFF7D6F910BD0000D41E020070B5FDF7F6
:10FB700067FA0546FDF754FA06462946FFF742FBA9
:10FB8000FDF772FA054601F0D3F8FEF76FFA064664
:10FB9000FDF76AFA85B2334600222946012001F0BA
:10FBA000FFF8FDF74FFE1BA10020FBF719FDFDF745
:10FBB0005BFA05462A461FA10020FBF711FDFDF761
:10FBC0003FFA0546FDF72CFA06462B4632461EA1A3
:10FBD0000020FBF705FD0320FCF728FE0446082C57
:10FBE00005D1224621A10020FBF7FAFC0FE000BF5F
:10FBF0002546002D06D000BF27A2CA212846FCF7C3
:10FC000079FB00BF00BF2CA10020FBF7E9FCFDF74A
:10FC100025FA70BD6E726635315F7461675F73740B
:10FC20006172745F6164766572746973696E672866
:10FC3000290D0A0073657269616C206E756D6265CD
:10FC4000723A2025640D0A006164765F696E7465FE
:10FC50007276616C3A2025642C206164765F746949
:10FC60006D656F75743A2025640D0A002A2A2045B7
:10FC700072726F72202D20626C655F6164766572AE
:10FC8000746973696E675F737461727428293A20AE
:10FC900025640D0A00000000536F757263655C6E89
:10FCA000726635315F7461675F616476657274692D
:10FCB00073696E672E6300002D2D3E2041647665CA
:10FCC00072746973696E6720537461727465640D30
:10FCD0000A00000070B59AB0044600250020199073
:10FCE00000BF18A8007901090901491C18A8017171
:10FCF0000079F0218843103018A9087100BF00BFB7
:10FD000018A8407901090901491C18A841714079D6
:10FD1000F0218843103018A9487100BF18A88079D5
:10FD200006218843811C18A881711C2112A8FBF7A9
:10FD300030FA10A8007A08218843014610A8017201
:10FD4000007A02218843811C10A8017219A817901B
:10FD500000201190A17810A8817132498180002083
:10FD6000109000BF10A8007801090901491C10A8D3
:10FD700001700078F0218843103010A9087000BF8E
:10FD800000BF10A8407801090901491C10A8417062
:10FD90004078F0218843103010A9487000BF10A8A7
:10FDA000807806218843811C10A881708078082102
:10FDB0008843411810A8817080781021884301463B
:10FDC00010A8817080784108490010A88170142122
:10FDD0000BA8FBF7DEF9282101A8FBF7DAF911A837
:10FDE0000B9010A80C902821684681860021C186BE
:10FDF0002821018701A80F90208823462C330BAAC5
:10FE000012A9A2DF054600BF2E46002E06D000BF75
:10FE100005A210493046FCF76DFA00BF00BF1AB0CA
:10FE200070BD000008200000536F757263655C6E42
:10FE3000726635315F7461675F7374617475735F87
:10FE400063686172616374657269737469632E6358
:10FE500000000000490200000148808D704700004A
:10FE6000D424002070B590B00446002500200F90E7
:10FE700000BF08A8007F01090901491C08A80177F3
:10FE8000007FF0218843103008A9087700BF00BF29
:10FE900008A8407F01090901491C08A84177407F53
:10FEA000F0218843103008A9487700BF08A8807F58
:10FEB00006218843811C08A881771C21FBF769F97A
:10FEC00008A8007808218843014608A80170007836
:10FED00002218843811C08A801700FA80D90002002
:10FEE0000790A17868468177304981830020069089
:10FEF00000BF6846007E01090901491C6846017679
:10FF0000007EF021884310306946087600BF00BFAC
:10FF10006846407E01090901491C68464176407ED9
:10FF2000F021884310306946487600BF6846807EDD
:10FF300006218843811C68468176807E082188439B
:10FF4000411868468176807E1021884301466846C4
:10FF50008176807E4108490068468176142101A897
:10FF6000FBF717F90020009007A8019006A802905F
:10FF70000221684681810021C18102210182059010
:10FF800020882346243301AA08A9A2DF054600BF22
:10FF90002E46002E06D000BF05A210493046FCF7C1
:10FFA000A9F900BF00BF10B070BD0000062000001E
:10FFB000536F757263655C6E726635315F7461672D
:10FFC0005F7374617475735F636861726163746594
:10FFD0007269737469632E630000000001020000FF
:10FFE0000148808C70470000D424002070B505467D
:10FFF000AC1D62881EA10020FBF7F2FA20780128D0
:020000040002F8
:1000000034D100F023FD6188884203D1284600F0F6
:1000100090FB2BE000F058FC6188884203D1284611
:1000200000F07AFB22E000F0FBF86188884203D1FF
:10003000284600F04FFB19E000F0B8F961888842CB
:1000400003D1284600F052FB10E0FFF7C9FF61889A
:10005000884203D1284600F0E7FA07E0FFF7FCFEEC
:100060006188884202D1284600F07EFA70BD000007
:100070006E726635315F7461675F73746174757336
:100080005F617574686F72697A655F7265717565B5
:10009000737428292C2068616E646C653A2030786E
:1000A000253032780D0A000070B590B00446002566
:1000B00000200F9000BF08A8007F01090901491C1A
:1000C00008A80177007FF0218843103008A908773D
:1000D00000BF00BF08A8407F01090901491C08A80A
:1000E0004177407FF0218843103008A9487700BF4E
:1000F00008A8807F06218843811C08A881771C21DD
:10010000FBF747F808A8007808218843014608A8AB
:100110000170007802218843811C08A801700FA893
:100120000D9000200790A17868468177304981833F
:100130000020069000BF6846007E01090901491CA5
:1001400068460176007EF0218843103069460876C3
:1001500000BF00BF6846407E01090901491C68468E
:100160004176407EF021884310306946487600BFD2
:100170006846807E06218843811C68468176807EA1
:1001800008218843411868468176807E1021884383
:10019000014668468176807E41084900684681763E
:1001A000142101A8FAF7F5FF0020009007A801909C
:1001B00006A802900121684681810021C1810121A8
:1001C0000182059020882346143301AA08A9A2DFE2
:1001D000054600BF2E46002E06D000BF05A2DF2137
:1001E0003046FCF787F800BF00BF10B070BD0000BC
:1001F00003200000536F757263655C6E7266353163
:100200005F7461675F7374617475735F6368617253
:10021000616374657269737469632E630000000022
:100220000148808A70470000D424002070B592B045
:10023000044600250020119000BF10A80079010994
:100240000901491C10A801710079F0218843103080
:1002500010A9087100BF00BF10A840790109090169
:10026000491C10A841714079F0218843103010A931
:10027000487100BF10A8807906218843811C10A80E
:1002800081711C210AA8FAF784FF08A8007A0821C6
:100290008843014608A80172007A02218843811C24
:1002A00008A8017211A80F9000200990A17808A851
:1002B00081713249684681840020089000BF08A8F7
:1002C000007801090901491C08A801700078F02193
:1002D0008843103008A9087000BF00BF08A8407804
:1002E00001090901491C08A841704078F0218843A0
:1002F000103008A9487000BF08A8807806218843FC
:10030000811C08A88170807808218843411808A8BA
:100310008170807810218843014608A88170807818
:100320004108490008A88170142103A8FAF731FF99
:1003300000200190029009A8039008A804900821C9
:10034000684681820021C1820821018301A80790AB
:10035000208823461C3303AA0AA9A2DF054600BF52
:100360002E46002E07D000BF05A2FF2128313046BF
:10037000FBF7C0FF00BF00BF12B070BD042000003B
:10038000536F757263655C6E726635315F74616759
:100390005F7374617475735F6368617261637465C0
:1003A0007269737469632E63000000000148808BDA
:1003B00070470000D42400207047704730B585B0E6
:1003C00000242C4B0FCB01AD0FC52B4901A863DFD7
:1003D000044600BF2546002D06D000BF27A22421D9
:1003E0002846FBF787FF00BF00BF0020009022488F
:1003F000801E8178684681700121490301801E4A70
:10040000921E69460120A0DF044600BF2546002D4C
:1004100006D000BF19A235212846FBF76BFF00BFAD
:1004200000BF1548801E00F057FA1348801E00F0E8
:100430008FF91148801EFFF737FE0F48801EFFF727
:10044000F5FE0D48801EFFF70DFD0B48801E828CC7
:1004500013A10020FBF7C4F80748801EFFF73AFC01
:100460000548801E828D19A10020FBF7B9F805B060
:1004700030BD000058280200D6240020536F75724A
:1004800063655C6E726635315F7461675F7374615A
:100490007475735F736572766963652E630000001F
:1004A00061637469766974795F7265636F72645FA2
:1004B000636F756E745F76616C75655F68616E649D
:1004C0006C653A20307825780D0A00006163746904
:1004D000766974795F726561645F7265636F726477
:1004E000735F76616C75655F68616E646C653A20F8
:1004F000307825780D0A0000F7B584B004460D4623
:100500000020009001900290039001216846017044
:1005100000218180012181710021018169460698B5
:1005200048810395A088A8DF064600BF3746002F04
:1005300006D000BF04A228213846FBF7DBFE00BF2F
:1005400000BF07B0F0BD0000536F757263655C6E4D
:10055000726635315F7461675F7374617475735F60
:10056000676174742E630000F0B585B00446002006
:100570000190029003902648FDF7ACFE2448FAF75C
:1005800023FE0746FCF740FD0546FCF761FD0646E5
:100590002946FAF7D1FD1F490978484338180190D8
:1005A0001C480078410041181948001D415C68460C
:1005B000018118480078410041181548001D0818AD
:1005C000417801A8C18013480078410041181048C3
:1005D000001D0818817801A801810A2201A920467E
:1005E000FFF78AFF01A80821415E06230091C35E40
:1005F00068460822825E08A10020FAF7F1FF05484C
:100600000078042802DB00200249087005B0F0BD24
:100610009C2400207820002025642C2025642C2098
:1006200025640D0A0000000038B504460020009043
:10063000FDF71CFD1A49086000201A4908701A4885
:10064000FDF748FE042100916846028817A10020AA
:10065000FAF7C6FFFEF79AFB05461349FAF7BEFD07
:1006600001201149087102210F4841710321817154
:100670000421C17105210172062141720721817295
:100680000821C172092101730A2141730B21817371
:100690000C21C173022269462046FFF72DFF38BDA9
:1006A00074200020782000209C240020616374695D
:1006B000766974795F7265636F72645F636F756E7C
:1006C000742E62725F636F756E743A2025640D0A32
:1006D0000000000038B5044600200090642000901F
:1006E000012269462046FFF707FF38BD7CB5044666
:1006F00000200090019000F083FB054600F07CFB99
:1007000006462A4631466846FAF72AFD0822694617
:100710002046FFF7F1FE7CBD38B50446002000906E
:1007200000F076FA0090012269462046FFF7E4FEC9
:1007300038BD38B5044600200090FEF727FB009036
:10074000042269462046FFF7D7FE38BD70470000F7
:1007500070B590B00446002500200F9000BF08A897
:10076000007F01090901491C08A80177007FF021D9
:100770008843103008A9087700BF00BF08A8407F51
:1007800001090901491C08A84177407FF0218843ED
:10079000103008A9487700BF08A8807F0621884349
:1007A000811C08A881771C21FAF7F3FC08A80078BF
:1007B00008218843014608A8017000780221884377
:1007C000811C08A801700FA80D9000200790A17847
:1007D00068468177304981830020069000BF6846D3
:1007E000007E01090901491C68460176007EF0215E
:1007F000884310306946087600BF00BF6846407ED7
:1008000001090901491C68464176407EF021884370
:1008100010306946487600BF6846807E06218843CE
:10082000811C68468176807E08218843411868468D
:100830008176807E10218843014668468176807EDD
:100840004108490068468176142101A8FAF7A1FC05
:100850000020009007A8019006A802900121684698
:1008600081810021C18101210182059020882346D8
:100870000C3301AA08A9A2DF054600BF2E46002EB0
:1008800006D000BF05A297213046FBF733FD00BF1D
:1008900000BF10B070BD000002200000536F7572E1
:1008A00063655C6E726635315F7461675F73746136
:1008B0007475735F63686172616374657269737480
:1008C00069632E63000000000148808970470000C2
:1008D000D42400207047000070B590B00446002575
:1008E00000200F9000BF08A8007F01090901491CE2
:1008F00008A80177007FF0218843103008A9087705
:1009000000BF00BF08A8407F01090901491C08A8D1
:100910004177407FF0218843103008A9487700BF15
:1009200008A8807F06218843811C08A881771C21A4
:10093000FAF72FFC08A8007808218843014608A888
:100940000170007802218843811C08A801700FA85B
:100950000D9000200790A178684681772F49818308
:100960000020069000BF6846007E01090901491C6D
:1009700068460176007EF02188431030694608768B
:1009800000BF00BF6846407E01090901491C684656
:100990004176407EF021884310306946487600BF9A
:1009A0006846807E06218843811C68468176807E69
:1009B00008218843411868468176807E102188434B
:1009C000014668468176807E410849006846817606
:1009D000142101A8FAF7DDFB0020009007A8019080
:1009E00006A802900421684681810021C18104216A
:1009F000018205902088231D01AA08A9A2DF0546CF
:100A000000BF2E46002E06D000BF05A24F21304663
:100A1000FBF770FC00BF00BF10B070BD01200000EC
:100A2000536F757263655C6E726635315F746167B2
:100A30005F7374617475735F636861726163746519
:100A40007269737469632E63000000000148808836
:100A500070470000D424002070B50546AC1DFFF798
:100A6000F5FF2188884215D0FFF72EFF21888842A4
:100A700010D0FFF7D5FB218888420BD0FFF796FCFA
:100A80002188884206D0FFF7ABFA2188884201D03E
:100A9000FFF7E2F970BD000010B531480068401C56
:100AA0002F4908602F480078002843D00846006886
:100AB0002D490968401A2D49097888423AD32848B7
:100AC000006829490860FCF709FC294B00229A5666
